{
  "contractName": "ETHPool",
  "abi": [
    {
      "inputs": [],
      "stateMutability": "nonpayable",
      "type": "constructor"
    },
    {
      "inputs": [
        {
          "internalType": "address",
          "name": "",
          "type": "address"
        }
      ],
      "name": "BalanceOf",
      "outputs": [
        {
          "internalType": "uint256",
          "name": "",
          "type": "uint256"
        }
      ],
      "stateMutability": "view",
      "type": "function",
      "constant": true
    },
    {
      "inputs": [],
      "name": "_rewards",
      "outputs": [
        {
          "internalType": "uint256",
          "name": "",
          "type": "uint256"
        }
      ],
      "stateMutability": "view",
      "type": "function",
      "constant": true
    },
    {
      "inputs": [],
      "name": "_test",
      "outputs": [
        {
          "internalType": "uint256",
          "name": "",
          "type": "uint256"
        }
      ],
      "stateMutability": "view",
      "type": "function",
      "constant": true
    },
    {
      "inputs": [],
      "name": "_totalUserDepositsInThisReward",
      "outputs": [
        {
          "internalType": "uint256",
          "name": "",
          "type": "uint256"
        }
      ],
      "stateMutability": "view",
      "type": "function",
      "constant": true
    },
    {
      "inputs": [
        {
          "internalType": "address",
          "name": "",
          "type": "address"
        },
        {
          "internalType": "uint256",
          "name": "",
          "type": "uint256"
        }
      ],
      "name": "depositsUserRegistry",
      "outputs": [
        {
          "internalType": "uint256",
          "name": "depositTime",
          "type": "uint256"
        },
        {
          "internalType": "uint256",
          "name": "depositId",
          "type": "uint256"
        },
        {
          "internalType": "uint256",
          "name": "amount",
          "type": "uint256"
        },
        {
          "internalType": "uint256",
          "name": "totalBalanceAtThisTime",
          "type": "uint256"
        },
        {
          "internalType": "uint256",
          "name": "userBalanceAtThisTime",
          "type": "uint256"
        }
      ],
      "stateMutability": "view",
      "type": "function",
      "constant": true
    },
    {
      "inputs": [
        {
          "internalType": "address",
          "name": "",
          "type": "address"
        }
      ],
      "name": "lastClaim",
      "outputs": [
        {
          "internalType": "uint256",
          "name": "",
          "type": "uint256"
        }
      ],
      "stateMutability": "view",
      "type": "function",
      "constant": true
    },
    {
      "inputs": [],
      "name": "owner",
      "outputs": [
        {
          "internalType": "address",
          "name": "",
          "type": "address"
        }
      ],
      "stateMutability": "view",
      "type": "function",
      "constant": true
    },
    {
      "inputs": [
        {
          "internalType": "uint256",
          "name": "",
          "type": "uint256"
        }
      ],
      "name": "rewardsDepositsRegistry",
      "outputs": [
        {
          "internalType": "uint256",
          "name": "depositTime",
          "type": "uint256"
        },
        {
          "internalType": "uint256",
          "name": "depositId",
          "type": "uint256"
        },
        {
          "internalType": "uint256",
          "name": "amount",
          "type": "uint256"
        },
        {
          "internalType": "uint256",
          "name": "totalBalanceAtThisTime",
          "type": "uint256"
        },
        {
          "internalType": "uint256",
          "name": "userBalanceAtThisTime",
          "type": "uint256"
        }
      ],
      "stateMutability": "view",
      "type": "function",
      "constant": true
    },
    {
      "inputs": [],
      "name": "totalRewardsBalance",
      "outputs": [
        {
          "internalType": "uint256",
          "name": "",
          "type": "uint256"
        }
      ],
      "stateMutability": "view",
      "type": "function",
      "constant": true
    },
    {
      "inputs": [],
      "name": "totalUsersBalance",
      "outputs": [
        {
          "internalType": "uint256",
          "name": "",
          "type": "uint256"
        }
      ],
      "stateMutability": "view",
      "type": "function",
      "constant": true
    },
    {
      "inputs": [],
      "name": "userRewards",
      "outputs": [
        {
          "internalType": "uint256",
          "name": "",
          "type": "uint256"
        }
      ],
      "stateMutability": "view",
      "type": "function",
      "constant": true
    },
    {
      "stateMutability": "payable",
      "type": "receive",
      "payable": true
    },
    {
      "inputs": [],
      "name": "userDeposit",
      "outputs": [
        {
          "internalType": "uint256",
          "name": "",
          "type": "uint256"
        }
      ],
      "stateMutability": "payable",
      "type": "function",
      "payable": true
    },
    {
      "inputs": [],
      "name": "rewardsDeposit",
      "outputs": [
        {
          "internalType": "uint256",
          "name": "",
          "type": "uint256"
        }
      ],
      "stateMutability": "payable",
      "type": "function",
      "payable": true
    },
    {
      "inputs": [
        {
          "internalType": "uint256",
          "name": "amount",
          "type": "uint256"
        }
      ],
      "name": "withdrawDeposit",
      "outputs": [
        {
          "internalType": "uint256",
          "name": "",
          "type": "uint256"
        }
      ],
      "stateMutability": "nonpayable",
      "type": "function"
    },
    {
      "inputs": [],
      "name": "calculateRewards",
      "outputs": [
        {
          "internalType": "uint256",
          "name": "",
          "type": "uint256"
        }
      ],
      "stateMutability": "nonpayable",
      "type": "function"
    },
    {
      "inputs": [
        {
          "internalType": "uint256",
          "name": "i",
          "type": "uint256"
        }
      ],
      "name": "calculateTotalUserDepositsInReward",
      "outputs": [
        {
          "internalType": "uint256",
          "name": "",
          "type": "uint256"
        }
      ],
      "stateMutability": "nonpayable",
      "type": "function"
    },
    {
      "inputs": [],
      "name": "claimRewards",
      "outputs": [
        {
          "internalType": "uint256",
          "name": "",
          "type": "uint256"
        }
      ],
      "stateMutability": "nonpayable",
      "type": "function"
    },
    {
      "inputs": [
        {
          "internalType": "address payable",
          "name": "_to",
          "type": "address"
        }
      ],
      "name": "sendViaCall",
      "outputs": [],
      "stateMutability": "payable",
      "type": "function",
      "payable": true
    },
    {
      "inputs": [],
      "name": "getContractBalance",
      "outputs": [
        {
          "internalType": "uint256",
          "name": "",
          "type": "uint256"
        }
      ],
      "stateMutability": "view",
      "type": "function",
      "constant": true
    },
    {
      "inputs": [],
      "name": "getLegthDepositsArray",
      "outputs": [
        {
          "internalType": "uint256",
          "name": "",
          "type": "uint256"
        }
      ],
      "stateMutability": "view",
      "type": "function",
      "constant": true
    },
    {
      "inputs": [],
      "name": "testSomething",
      "outputs": [
        {
          "internalType": "uint256",
          "name": "",
          "type": "uint256"
        }
      ],
      "stateMutability": "nonpayable",
      "type": "function"
    }
  ],
  "bytecode": "0x608060405234801561001057600080fd5b5033600460006101000a81548173ffffffffffffffffffffffffffffffffffffffff021916908373ffffffffffffffffffffffffffffffffffffffff16021790555061180f806100616000396000f3fe60806040526004361061012e5760003560e01c80635c16e15e116100ab5780639a13ba291161006f5780639a13ba29146103e2578063a49ba4861461040d578063a6246d0914610438578063a6c2da4c14610463578063d99678891461048e578063eec3ea73146104cb57610135565b80635c16e15e146102f65780636f9fb98a14610333578063814a3d7a1461035e578063830c29ae1461039b5780638da5cb5b146103b757610135565b806333289a46116100f257806333289a4614610204578063372500ab146102415780633e50de301461026c57806348146113146102975780634faa3807146102b557610135565b806308155aa81461013a5780632a4df8a4146101585780632d57121b146101835780632f30283e146101ae57806330bab40c146101d957610135565b3661013557005b600080fd5b61014261050c565b60405161014f919061151f565b60405180910390f35b34801561016457600080fd5b5061016d610725565b60405161017a919061151f565b60405180910390f35b34801561018f57600080fd5b5061019861072b565b6040516101a5919061151f565b60405180910390f35b3480156101ba57600080fd5b506101c3610731565b6040516101d0919061151f565b60405180910390f35b3480156101e557600080fd5b506101ee61073a565b6040516101fb919061151f565b60405180910390f35b34801561021057600080fd5b5061022b6004803603810190610226919061136e565b610784565b604051610238919061151f565b60405180910390f35b34801561024d57600080fd5b506102566108cd565b604051610263919061151f565b60405180910390f35b34801561027857600080fd5b50610281610a01565b60405161028e919061151f565b60405180910390f35b61029f610c29565b6040516102ac919061151f565b60405180910390f35b3480156102c157600080fd5b506102dc60048036038101906102d7919061136e565b610ecb565b6040516102ed95949392919061153a565b60405180910390f35b34801561030257600080fd5b5061031d600480360381019061031891906112e0565b610f11565b60405161032a919061151f565b60405180910390f35b34801561033f57600080fd5b50610348610f29565b604051610355919061151f565b60405180910390f35b34801561036a57600080fd5b506103856004803603810190610380919061136e565b610f31565b604051610392919061151f565b60405180910390f35b6103b560048036038101906103b09190611309565b611116565b005b3480156103c357600080fd5b506103cc6111c9565b6040516103d991906114a4565b60405180910390f35b3480156103ee57600080fd5b506103f76111ef565b604051610404919061151f565b60405180910390f35b34801561041957600080fd5b506104226111f5565b60405161042f919061151f565b60405180910390f35b34801561044457600080fd5b5061044d6111fb565b60405161045a919061151f565b60405180910390f35b34801561046f57600080fd5b50610478611201565b604051610485919061151f565b60405180910390f35b34801561049a57600080fd5b506104b560048036038101906104b091906112e0565b611207565b6040516104c2919061151f565b60405180910390f35b3480156104d757600080fd5b506104f260048036038101906104ed9190611332565b61121f565b60405161050395949392919061153a565b60405180910390f35b6000600460009054906101000a900473ffffffffffffffffffffffffffffffffffffffff1673ffffffffffffffffffffffffffffffffffffffff163373ffffffffffffffffffffffffffffffffffffffff161461059e576040517f08c379a0000000000000000000000000000000000000000000000000000000008152600401610595906114ff565b60405180910390fd5b34600760008282546105b091906115a9565b925050819055506105bf611272565b34816040018181525050428160000181815250506009805490508160200181815250506006548160600181815250506009819080600181540180825580915050600190039060005260206000209060050201600090919091909150600082015181600001556020820151816001015560408201518160020155606082015181600301556080820151816004015550506000803073ffffffffffffffffffffffffffffffffffffffff16346040516106759061148f565b60006040518083038185875af1925050503d80600081146106b2576040519150601f19603f3d011682016040523d82523d6000602084013e6106b7565b606091505b5091509150816106fc576040517f08c379a00000000000000000000000000000000000000000000000000000000081526004016106f3906114bf565b60405180910390fd5b60011515821515141561071d57346000819055506000549350505050610722565b600080fd5b90565b60035481565b60025481565b60008054905090565b6000600860003373ffffffffffffffffffffffffffffffffffffffff1673ffffffffffffffffffffffffffffffffffffffff16815260200190815260200160002080549050905090565b60008160066000828254610798919061168a565b9250508190555081600560003373ffffffffffffffffffffffffffffffffffffffff1673ffffffffffffffffffffffffffffffffffffffff16815260200190815260200160002060008282546107ee919061168a565b925050819055506000803373ffffffffffffffffffffffffffffffffffffffff168460405161081c9061148f565b60006040518083038185875af1925050503d8060008114610859576040519150601f19603f3d011682016040523d82523d6000602084013e61085e565b606091505b5091509150816108a3576040517f08c379a000000000000000000000000000000000000000000000000000000000815260040161089a906114df565b60405180910390fd5b6001151582151514156108c35783600081905550600054925050506108c8565b600080fd5b919050565b60008060646108da610a01565b6108e491906115ff565b905042600a60003373ffffffffffffffffffffffffffffffffffffffff1673ffffffffffffffffffffffffffffffffffffffff168152602001908152602001600020819055506000803373ffffffffffffffffffffffffffffffffffffffff16836040516109519061148f565b60006040518083038185875af1925050503d806000811461098e576040519150601f19603f3d011682016040523d82523d6000602084013e610993565b606091505b5091509150816109d8576040517f08c379a00000000000000000000000000000000000000000000000000000000081526004016109cf906114df565b60405180910390fd5b6001151582151514156109f9578260008190555060005493505050506109fe565b600080fd5b90565b600080600080600060098054905090505b60008110610bd2576009600182610a29919061168a565b81548110610a60577f4e487b7100000000000000000000000000000000000000000000000000000000600052603260045260246000fd5b906000526020600020906005020160000154600a60003373ffffffffffffffffffffffffffffffffffffffff1673ffffffffffffffffffffffffffffffffffffffff168152602001908152602001600020541015610bb257610acd600182610ac8919061168a565b610f31565b92506009600182610ade919061168a565b81548110610b15577f4e487b7100000000000000000000000000000000000000000000000000000000600052603260045260246000fd5b9060005260206000209060050201600201546009600183610b36919061168a565b81548110610b6d577f4e487b7100000000000000000000000000000000000000000000000000000000600052603260045260246000fd5b906000526020600020906005020160030154606485610b8c9190611630565b610b9691906115ff565b610ba09190611630565b82610bab91906115a9565b9150610bbf565b6000600181905550610bd2565b8080610bca9061170c565b915050610a12565b508060018190555042600a60003373ffffffffffffffffffffffffffffffffffffffff1673ffffffffffffffffffffffffffffffffffffffff16815260200190815260200160002081905550600154935050505090565b60003460066000828254610c3d91906115a9565b9250508190555034600560003373ffffffffffffffffffffffffffffffffffffffff1673ffffffffffffffffffffffffffffffffffffffff1681526020019081526020016000206000828254610c9391906115a9565b92505081905550610ca2611272565b3481604001818152505042816000018181525050600860003373ffffffffffffffffffffffffffffffffffffffff1673ffffffffffffffffffffffffffffffffffffffff16815260200190815260200160002080549050816020018181525050600560003373ffffffffffffffffffffffffffffffffffffffff1673ffffffffffffffffffffffffffffffffffffffff16815260200190815260200160002054816080018181525050600654816060018181525050600860003373ffffffffffffffffffffffffffffffffffffffff1673ffffffffffffffffffffffffffffffffffffffff168152602001908152602001600020819080600181540180825580915050600190039060005260206000209060050201600090919091909150600082015181600001556020820151816001015560408201518160020155606082015181600301556080820151816004015550506000803073ffffffffffffffffffffffffffffffffffffffff1634604051610e1b9061148f565b60006040518083038185875af1925050503d8060008114610e58576040519150601f19603f3d011682016040523d82523d6000602084013e610e5d565b606091505b509150915081610ea2576040517f08c379a0000000000000000000000000000000000000000000000000000000008152600401610e99906114bf565b60405180910390fd5b600115158215151415610ec357346000819055506000549350505050610ec8565b600080fd5b90565b60098181548110610edb57600080fd5b90600052602060002090600502016000915090508060000154908060010154908060020154908060030154908060040154905085565b600a6020528060005260406000206000915090505481565b600047905090565b600080600090506000600860003373ffffffffffffffffffffffffffffffffffffffff1673ffffffffffffffffffffffffffffffffffffffff168152602001908152602001600020805490509050600081111561110c5760098481548110610fc2577f4e487b7100000000000000000000000000000000000000000000000000000000600052603260045260246000fd5b906000526020600020906005020160000154600860003373ffffffffffffffffffffffffffffffffffffffff1673ffffffffffffffffffffffffffffffffffffffff168152602001908152602001600020600183611020919061168a565b81548110611057577f4e487b7100000000000000000000000000000000000000000000000000000000600052603260045260246000fd5b906000526020600020906005020160000154101561110b57600860003373ffffffffffffffffffffffffffffffffffffffff1673ffffffffffffffffffffffffffffffffffffffff1681526020019081526020016000206001826110bb919061168a565b815481106110f2577f4e487b7100000000000000000000000000000000000000000000000000000000600052603260045260246000fd5b906000526020600020906005020160040154915061110c565b5b5080915050919050565b6000808273ffffffffffffffffffffffffffffffffffffffff163460405161113d9061148f565b60006040518083038185875af1925050503d806000811461117a576040519150601f19603f3d011682016040523d82523d6000602084013e61117f565b606091505b5091509150816111c4576040517f08c379a00000000000000000000000000000000000000000000000000000000081526004016111bb906114bf565b60405180910390fd5b505050565b600460009054906101000a900473ffffffffffffffffffffffffffffffffffffffff1681565b60065481565b60075481565b60005481565b60015481565b60056020528060005260406000206000915090505481565b6008602052816000526040600020818154811061123b57600080fd5b9060005260206000209060050201600091509150508060000154908060010154908060020154908060030154908060040154905085565b6040518060a0016040528060008152602001600081526020016000815260200160008152602001600081525090565b6000813590506112b081611794565b92915050565b6000813590506112c5816117ab565b92915050565b6000813590506112da816117c2565b92915050565b6000602082840312156112f257600080fd5b6000611300848285016112a1565b91505092915050565b60006020828403121561131b57600080fd5b6000611329848285016112b6565b91505092915050565b6000806040838503121561134557600080fd5b6000611353858286016112a1565b9250506020611364858286016112cb565b9150509250929050565b60006020828403121561138057600080fd5b600061138e848285016112cb565b91505092915050565b6113a0816116be565b82525050565b60006113b3601483611598565b91507f4661696c656420746f2073656e642045746865720000000000000000000000006000830152602082019050919050565b60006113f3601883611598565b91507f4661696c656420746f20776974686472617720457468657200000000000000006000830152602082019050919050565b6000611433600983611598565b91507f4e6f74206f776e657200000000000000000000000000000000000000000000006000830152602082019050919050565b600061147360008361158d565b9150600082019050919050565b61148981611702565b82525050565b600061149a82611466565b9150819050919050565b60006020820190506114b96000830184611397565b92915050565b600060208201905081810360008301526114d8816113a6565b9050919050565b600060208201905081810360008301526114f8816113e6565b9050919050565b6000602082019050818103600083015261151881611426565b9050919050565b60006020820190506115346000830184611480565b92915050565b600060a08201905061154f6000830188611480565b61155c6020830187611480565b6115696040830186611480565b6115766060830185611480565b6115836080830184611480565b9695505050505050565b600081905092915050565b600082825260208201905092915050565b60006115b482611702565b91506115bf83611702565b9250827fffffffffffffffffffffffffffffffffffffffffffffffffffffffffffffffff038211156115f4576115f3611736565b5b828201905092915050565b600061160a82611702565b915061161583611702565b92508261162557611624611765565b5b828204905092915050565b600061163b82611702565b915061164683611702565b9250817fffffffffffffffffffffffffffffffffffffffffffffffffffffffffffffffff048311821515161561167f5761167e611736565b5b828202905092915050565b600061169582611702565b91506116a083611702565b9250828210156116b3576116b2611736565b5b828203905092915050565b60006116c9826116e2565b9050919050565b60006116db826116e2565b9050919050565b600073ffffffffffffffffffffffffffffffffffffffff82169050919050565b6000819050919050565b600061171782611702565b9150600082141561172b5761172a611736565b5b600182039050919050565b7f4e487b7100000000000000000000000000000000000000000000000000000000600052601160045260246000fd5b7f4e487b7100000000000000000000000000000000000000000000000000000000600052601260045260246000fd5b61179d816116be565b81146117a857600080fd5b50565b6117b4816116d0565b81146117bf57600080fd5b50565b6117cb81611702565b81146117d657600080fd5b5056fea2646970667358221220191181507bda6a369d894933e0008d88c4ced8b9a8c9a755fa452fed5eda83c364736f6c63430008000033",
  "immutableReferences": {},
  "source": "// SPDX-License-Identifier: MIT\n\npragma solidity ^0.8.0;\n\ncontract ETHPool  {\n\n    // Function to receive Ether. msg.data must be empty\n    receive() external payable {}\n    uint public _test;\n    uint public _rewards;\n    uint public userRewards;\n    uint public _totalUserDepositsInThisReward;\n//    uint public depositsLength;\n    //------\n    address public owner;\n\n    mapping (address => uint) public BalanceOf;\n    uint public totalUsersBalance;\n\n    uint256 public totalRewardsBalance;\n\n    struct depositRegistryStruct{\n         uint depositTime;\n         uint depositId;\n         uint amount;\n         uint totalBalanceAtThisTime;\n         uint userBalanceAtThisTime;\n\n//         uint balanceAtThisTime;\n\n\n     }\n    mapping (address => depositRegistryStruct[]) public depositsUserRegistry;\n    depositRegistryStruct[] public rewardsDepositsRegistry;\n    mapping (address => uint) public lastClaim;\n\n\n    // mapping (address => uint256) public lastClaim;\n\n    constructor() {\n        // Set the transaction sender as the owner of the contract.\n        owner = msg.sender;\n //       lastClaim[msg.sender] = 0;\n    }\n\n    function userDeposit() public payable returns (uint){\n        totalUsersBalance += msg.value; \n        BalanceOf[msg.sender] += msg.value;\n        depositRegistryStruct memory userDeposit;\n\n         userDeposit.amount = msg.value;\n         userDeposit.depositTime = block.timestamp;\n         userDeposit.depositId = depositsUserRegistry[msg.sender].length;\n         userDeposit.userBalanceAtThisTime = BalanceOf[msg.sender];\n         userDeposit.totalBalanceAtThisTime = totalUsersBalance;\n         depositsUserRegistry[msg.sender].push(userDeposit);\n\n        (bool sent, bytes memory data) = address(this).call{value: msg.value}(\"\");\n        require(sent, \"Failed to send Ether\");\n\n        if(sent == true) { \n\n            _test = msg.value;\n            return (_test);\n        }\n        else {\n            revert();\n        }\n    \n    }\n\n    // function userDeposit(address _address ,uint _depositId) public returns (depositRegistryStruct memory) {\n    //     return depositsUserRegistry[_address][_depositId];\n    // }\n\n    function rewardsDeposit() public payable onlyOwner returns (uint)  {\n        totalRewardsBalance += msg.value; \n        depositRegistryStruct memory rewardDeposit;\n\n         rewardDeposit.amount = msg.value;\n         rewardDeposit.depositTime = block.timestamp;\n         rewardDeposit.depositId = rewardsDepositsRegistry.length;\n         rewardDeposit.totalBalanceAtThisTime = totalUsersBalance;\n         rewardsDepositsRegistry.push(rewardDeposit);\n\n        (bool sent, bytes memory data) = address(this).call{value: msg.value}(\"\");\n        require(sent, \"Failed to send Ether\");\n\n\n        if(sent == true) { \n\n            _test = msg.value;\n            return (_test);\n        }\n        else {\n            revert();\n        }\n        \n    }\n\n    // function rewardDeposit(uint _depositId) public returns (depositRegistryStruct memory) {\n    //     return rewardsDepositsRegistry[_depositId];\n    // }\n\n    //Withdraw Ether from the contract\n    function withdrawDeposit(uint amount) public returns (uint){\n        totalUsersBalance -= amount; \n        BalanceOf[msg.sender] -= amount;\n        \n         (bool succeed, bytes memory data) = msg.sender.call{value: amount}(\"\");\n         require(succeed, \"Failed to withdraw Ether\");\n\n  \n        if(succeed == true) { \n\n            _test = amount;\n            return (_test);\n        }\n        else {\n            revert();\n        }\n\n}\n\n function calculateRewards() public returns (uint)  {\n    uint rewards; \n    uint totalUserDeposits; \n    uint proportionRewards;\n\n        for (uint i = rewardsDepositsRegistry.length; i >= 0 ; i--) {  \n            if (lastClaim[msg.sender] < rewardsDepositsRegistry[i - 1].depositTime) {\n                totalUserDeposits = calculateTotalUserDepositsInReward(i - 1);\n                proportionRewards += totalUserDeposits * 100 /  rewardsDepositsRegistry[i-1].totalBalanceAtThisTime * rewardsDepositsRegistry[i-1].amount;\n            }\n            else {\n                _rewards = 0;\n                break;\n            }      \n//               _rewards = i - 1;\n    }\n\n//            rewards = proportionRewards;\n            _rewards = proportionRewards;\n            lastClaim[msg.sender]=block.timestamp;\n            return _rewards;\n        }\n\nfunction calculateTotalUserDepositsInReward(uint i) public returns (uint){\n    uint totalUserDepositsInThisReward = 0; \n            for (uint j = depositsUserRegistry[msg.sender].length; j > 0; j--){\n                        if(depositsUserRegistry[msg.sender][j-1].depositTime < rewardsDepositsRegistry[i].depositTime)  {\n                        totalUserDepositsInThisReward =  depositsUserRegistry[msg.sender][j-1].userBalanceAtThisTime;\n                        break;\n                        }\n                        else {\n                        break;}\n    \n                }\n        return totalUserDepositsInThisReward;\n    }\n\n\nfunction claimRewards() public returns (uint) {\n    uint rewards;\n    rewards = calculateRewards() / 100;\n    lastClaim[msg.sender] = block.timestamp;\n\n    (bool succeed, bytes memory data) = msg.sender.call{value: rewards}(\"\");\n    require(succeed, \"Failed to withdraw Ether\");\n\n    if(succeed == true) { \n\n            _test = rewards;\n            return _test;\n        }\n        else {\n            revert();\n        }\n}\n \n    //Send ether from the account connected with this function\n    function sendViaCall(address payable _to) public payable {\n    // Call returns a boolean value indicating success or failure.\n    // This is the current recommended method to use.\n        (bool sent, bytes memory data) = _to.call{value: msg.value}(\"\");\n        require(sent, \"Failed to send Ether\");\n    }\n\n    function getContractBalance() public view returns (uint) {\n        return address(this).balance;\n    }\n\n    function getLegthDepositsArray() public view returns (uint){\n        return  depositsUserRegistry[msg.sender].length;\n    }\n\n    \n\n    modifier onlyOwner() {\n        require(msg.sender == owner, \"Not owner\");\n        // Underscore is a special character only used inside\n        // a function modifier and it tells Solidity to\n        // execute the rest of the code.\n        _;\n    }\n\n    function testSomething() public returns (uint) {\n//        _test = userDeposit{value: 100}();\n\n//        address.function{ value: amount }(arg1, arg2, arg3)\n\n        return _test;\n    }\n \n}",
  "sourcePath": "C:\\Codeando\\ExactlyChallenge\\v1\\contracts\\ETHPool.sol",
  "compiler": {
    "name": "solc",
    "version": "0.8.0+commit.c7dfd78e.Emscripten.clang"
  },
  "schemaVersion": "3.4.7",
  "updatedAt": "2022-04-19T20:47:36.821Z",
  "networkType": "ethereum",
  "devdoc": {
    "kind": "dev",
    "methods": {},
    "version": 1
  },
  "userdoc": {
    "kind": "user",
    "methods": {},
    "version": 1
  }
}