{
  "contractName": "ETHPool_",
  "abi": [
    {
      "inputs": [],
      "stateMutability": "nonpayable",
      "type": "constructor"
    },
    {
      "inputs": [
        {
          "internalType": "address",
          "name": "",
          "type": "address"
        }
      ],
      "name": "BalanceOf",
      "outputs": [
        {
          "internalType": "uint256",
          "name": "",
          "type": "uint256"
        }
      ],
      "stateMutability": "view",
      "type": "function"
    },
    {
      "inputs": [],
      "name": "_rewards",
      "outputs": [
        {
          "internalType": "uint256",
          "name": "",
          "type": "uint256"
        }
      ],
      "stateMutability": "view",
      "type": "function"
    },
    {
      "inputs": [],
      "name": "_test",
      "outputs": [
        {
          "internalType": "uint256",
          "name": "",
          "type": "uint256"
        }
      ],
      "stateMutability": "view",
      "type": "function"
    },
    {
      "inputs": [],
      "name": "_totalUserDepositsInThisReward",
      "outputs": [
        {
          "internalType": "uint256",
          "name": "",
          "type": "uint256"
        }
      ],
      "stateMutability": "view",
      "type": "function"
    },
    {
      "inputs": [
        {
          "internalType": "address",
          "name": "",
          "type": "address"
        },
        {
          "internalType": "uint256",
          "name": "",
          "type": "uint256"
        }
      ],
      "name": "depositsUserRegistry",
      "outputs": [
        {
          "internalType": "uint256",
          "name": "depositTime",
          "type": "uint256"
        },
        {
          "internalType": "uint256",
          "name": "depositId",
          "type": "uint256"
        },
        {
          "internalType": "uint256",
          "name": "amount",
          "type": "uint256"
        },
        {
          "internalType": "uint256",
          "name": "totalBalanceAtThisTime",
          "type": "uint256"
        }
      ],
      "stateMutability": "view",
      "type": "function"
    },
    {
      "inputs": [
        {
          "internalType": "address",
          "name": "",
          "type": "address"
        }
      ],
      "name": "lastClaim",
      "outputs": [
        {
          "internalType": "uint256",
          "name": "",
          "type": "uint256"
        }
      ],
      "stateMutability": "view",
      "type": "function"
    },
    {
      "inputs": [],
      "name": "owner",
      "outputs": [
        {
          "internalType": "address",
          "name": "",
          "type": "address"
        }
      ],
      "stateMutability": "view",
      "type": "function"
    },
    {
      "inputs": [
        {
          "internalType": "uint256",
          "name": "",
          "type": "uint256"
        }
      ],
      "name": "rewardsDepositsRegistry",
      "outputs": [
        {
          "internalType": "uint256",
          "name": "depositTime",
          "type": "uint256"
        },
        {
          "internalType": "uint256",
          "name": "depositId",
          "type": "uint256"
        },
        {
          "internalType": "uint256",
          "name": "amount",
          "type": "uint256"
        },
        {
          "internalType": "uint256",
          "name": "totalBalanceAtThisTime",
          "type": "uint256"
        }
      ],
      "stateMutability": "view",
      "type": "function"
    },
    {
      "inputs": [],
      "name": "totalRewardsBalance",
      "outputs": [
        {
          "internalType": "uint256",
          "name": "",
          "type": "uint256"
        }
      ],
      "stateMutability": "view",
      "type": "function"
    },
    {
      "inputs": [],
      "name": "totalUsersBalance",
      "outputs": [
        {
          "internalType": "uint256",
          "name": "",
          "type": "uint256"
        }
      ],
      "stateMutability": "view",
      "type": "function"
    },
    {
      "inputs": [],
      "name": "userRewards",
      "outputs": [
        {
          "internalType": "uint256",
          "name": "",
          "type": "uint256"
        }
      ],
      "stateMutability": "view",
      "type": "function"
    },
    {
      "stateMutability": "payable",
      "type": "receive"
    },
    {
      "inputs": [],
      "name": "userDeposit",
      "outputs": [
        {
          "internalType": "uint256",
          "name": "",
          "type": "uint256"
        }
      ],
      "stateMutability": "payable",
      "type": "function"
    },
    {
      "inputs": [],
      "name": "rewardsDeposit",
      "outputs": [
        {
          "internalType": "uint256",
          "name": "",
          "type": "uint256"
        }
      ],
      "stateMutability": "payable",
      "type": "function"
    },
    {
      "inputs": [
        {
          "internalType": "uint256",
          "name": "amount",
          "type": "uint256"
        }
      ],
      "name": "withdrawDeposit",
      "outputs": [
        {
          "internalType": "uint256",
          "name": "",
          "type": "uint256"
        }
      ],
      "stateMutability": "nonpayable",
      "type": "function"
    },
    {
      "inputs": [],
      "name": "calculateRewards",
      "outputs": [
        {
          "internalType": "uint256",
          "name": "",
          "type": "uint256"
        }
      ],
      "stateMutability": "nonpayable",
      "type": "function"
    },
    {
      "inputs": [
        {
          "internalType": "uint256",
          "name": "i",
          "type": "uint256"
        }
      ],
      "name": "calculateTotalUserDepositsInReward",
      "outputs": [
        {
          "internalType": "uint256",
          "name": "",
          "type": "uint256"
        }
      ],
      "stateMutability": "nonpayable",
      "type": "function"
    },
    {
      "inputs": [],
      "name": "claimRewards",
      "outputs": [
        {
          "internalType": "uint256",
          "name": "",
          "type": "uint256"
        }
      ],
      "stateMutability": "nonpayable",
      "type": "function"
    },
    {
      "inputs": [
        {
          "internalType": "address payable",
          "name": "_to",
          "type": "address"
        }
      ],
      "name": "sendViaCall",
      "outputs": [],
      "stateMutability": "payable",
      "type": "function"
    },
    {
      "inputs": [],
      "name": "getContractBalance",
      "outputs": [
        {
          "internalType": "uint256",
          "name": "",
          "type": "uint256"
        }
      ],
      "stateMutability": "view",
      "type": "function"
    },
    {
      "inputs": [],
      "name": "getLegthDepositsArray",
      "outputs": [
        {
          "internalType": "uint256",
          "name": "",
          "type": "uint256"
        }
      ],
      "stateMutability": "view",
      "type": "function"
    },
    {
      "inputs": [],
      "name": "testSomething",
      "outputs": [
        {
          "internalType": "uint256",
          "name": "",
          "type": "uint256"
        }
      ],
      "stateMutability": "nonpayable",
      "type": "function"
    }
  ],
  "bytecode": "0x608060405234801561001057600080fd5b5033600460006101000a81548173ffffffffffffffffffffffffffffffffffffffff021916908373ffffffffffffffffffffffffffffffffffffffff1602179055506117e7806100616000396000f3fe60806040526004361061012e5760003560e01c80635c16e15e116100ab5780639a13ba291161006f5780639a13ba29146103e1578063a49ba4861461040c578063a6246d0914610437578063a6c2da4c14610462578063d99678891461048d578063eec3ea73146104ca57610135565b80635c16e15e146102f55780636f9fb98a14610332578063814a3d7a1461035d578063830c29ae1461039a5780638da5cb5b146103b657610135565b806333289a46116100f257806333289a4614610204578063372500ab146102415780633e50de301461026c57806348146113146102975780634faa3807146102b557610135565b806308155aa81461013a5780632a4df8a4146101585780632d57121b146101835780632f30283e146101ae57806330bab40c146101d957610135565b3661013557005b600080fd5b61014261050a565b60405161014f91906114bc565b60405180910390f35b34801561016457600080fd5b5061016d610719565b60405161017a91906114bc565b60405180910390f35b34801561018f57600080fd5b5061019861071f565b6040516101a591906114bc565b60405180910390f35b3480156101ba57600080fd5b506101c3610725565b6040516101d091906114bc565b60405180910390f35b3480156101e557600080fd5b506101ee61072e565b6040516101fb91906114bc565b60405180910390f35b34801561021057600080fd5b5061022b6004803603810190610226919061130b565b610778565b60405161023891906114bc565b60405180910390f35b34801561024d57600080fd5b506102566108c1565b60405161026391906114bc565b60405180910390f35b34801561027857600080fd5b506102816109f5565b60405161028e91906114bc565b60405180910390f35b61029f610c1e565b6040516102ac91906114bc565b60405180910390f35b3480156102c157600080fd5b506102dc60048036038101906102d7919061130b565b610e6d565b6040516102ec94939291906114d7565b60405180910390f35b34801561030157600080fd5b5061031c6004803603810190610317919061127d565b610ead565b60405161032991906114bc565b60405180910390f35b34801561033e57600080fd5b50610347610ec5565b60405161035491906114bc565b60405180910390f35b34801561036957600080fd5b50610384600480360381019061037f919061130b565b610ecd565b60405161039191906114bc565b60405180910390f35b6103b460048036038101906103af91906112a6565b6110c0565b005b3480156103c257600080fd5b506103cb611173565b6040516103d89190611441565b60405180910390f35b3480156103ed57600080fd5b506103f6611199565b60405161040391906114bc565b60405180910390f35b34801561041857600080fd5b5061042161119f565b60405161042e91906114bc565b60405180910390f35b34801561044357600080fd5b5061044c6111a5565b60405161045991906114bc565b60405180910390f35b34801561046e57600080fd5b506104776111ab565b60405161048491906114bc565b60405180910390f35b34801561049957600080fd5b506104b460048036038101906104af919061127d565b6111b1565b6040516104c191906114bc565b60405180910390f35b3480156104d657600080fd5b506104f160048036038101906104ec91906112cf565b6111c9565b60405161050194939291906114d7565b60405180910390f35b6000600460009054906101000a900473ffffffffffffffffffffffffffffffffffffffff1673ffffffffffffffffffffffffffffffffffffffff163373ffffffffffffffffffffffffffffffffffffffff161461059c576040517f08c379a00000000000000000000000000000000000000000000000000000000081526004016105939061149c565b60405180910390fd5b34600760008282546105ae9190611538565b925050819055506105bd611216565b348160400181815250504281600001818152505060098054905081602001818152505060065481606001818152505060098190806001815401808255809150506001900390600052602060002090600402016000909190919091506000820151816000015560208201518160010155604082015181600201556060820151816003015550506000803073ffffffffffffffffffffffffffffffffffffffff16346040516106699061142c565b60006040518083038185875af1925050503d80600081146106a6576040519150601f19603f3d011682016040523d82523d6000602084013e6106ab565b606091505b5091509150816106f0576040517f08c379a00000000000000000000000000000000000000000000000000000000081526004016106e79061145c565b60405180910390fd5b60011515821515141561071157346000819055506000549350505050610716565b600080fd5b90565b60035481565b60025481565b60008054905090565b6000600860003373ffffffffffffffffffffffffffffffffffffffff1673ffffffffffffffffffffffffffffffffffffffff16815260200190815260200160002080549050905090565b6000816006600082825461078c9190611619565b9250508190555081600560003373ffffffffffffffffffffffffffffffffffffffff1673ffffffffffffffffffffffffffffffffffffffff16815260200190815260200160002060008282546107e29190611619565b925050819055506000803373ffffffffffffffffffffffffffffffffffffffff16846040516108109061142c565b60006040518083038185875af1925050503d806000811461084d576040519150601f19603f3d011682016040523d82523d6000602084013e610852565b606091505b509150915081610897576040517f08c379a000000000000000000000000000000000000000000000000000000000815260040161088e9061147c565b60405180910390fd5b6001151582151514156108b75783600081905550600054925050506108bc565b600080fd5b919050565b60008060646108ce6109f5565b6108d8919061158e565b905042600a60003373ffffffffffffffffffffffffffffffffffffffff1673ffffffffffffffffffffffffffffffffffffffff168152602001908152602001600020819055506000803373ffffffffffffffffffffffffffffffffffffffff16836040516109459061142c565b60006040518083038185875af1925050503d8060008114610982576040519150601f19603f3d011682016040523d82523d6000602084013e610987565b606091505b5091509150816109cc576040517f08c379a00000000000000000000000000000000000000000000000000000000081526004016109c39061147c565b60405180910390fd5b6001151582151514156109ed578260008190555060005493505050506109f2565b600080fd5b90565b600080600080600060098054905090505b6000811115610bc7576009600182610a1e9190611619565b81548110610a55577f4e487b7100000000000000000000000000000000000000000000000000000000600052603260045260246000fd5b906000526020600020906004020160000154600a60003373ffffffffffffffffffffffffffffffffffffffff1673ffffffffffffffffffffffffffffffffffffffff168152602001908152602001600020541015610ba757610ac2600182610abd9190611619565b610ecd565b92506009600182610ad39190611619565b81548110610b0a577f4e487b7100000000000000000000000000000000000000000000000000000000600052603260045260246000fd5b9060005260206000209060040201600201546009600183610b2b9190611619565b81548110610b62577f4e487b7100000000000000000000000000000000000000000000000000000000600052603260045260246000fd5b906000526020600020906004020160030154606485610b8191906115bf565b610b8b919061158e565b610b9591906115bf565b82610ba09190611538565b9150610bb4565b6000600181905550610bc7565b8080610bbf9061169b565b915050610a06565b508060018190555042600a60003373ffffffffffffffffffffffffffffffffffffffff1673ffffffffffffffffffffffffffffffffffffffff16815260200190815260200160002081905550600154935050505090565b60003460066000828254610c329190611538565b9250508190555034600560003373ffffffffffffffffffffffffffffffffffffffff1673ffffffffffffffffffffffffffffffffffffffff1681526020019081526020016000206000828254610c889190611538565b92505081905550610c97611216565b3481604001818152505042816000018181525050600860003373ffffffffffffffffffffffffffffffffffffffff1673ffffffffffffffffffffffffffffffffffffffff16815260200190815260200160002080549050816020018181525050600654816060018181525050600860003373ffffffffffffffffffffffffffffffffffffffff1673ffffffffffffffffffffffffffffffffffffffff1681526020019081526020016000208190806001815401808255809150506001900390600052602060002090600402016000909190919091506000820151816000015560208201518160010155604082015181600201556060820151816003015550506000803073ffffffffffffffffffffffffffffffffffffffff1634604051610dbd9061142c565b60006040518083038185875af1925050503d8060008114610dfa576040519150601f19603f3d011682016040523d82523d6000602084013e610dff565b606091505b509150915081610e44576040517f08c379a0000000000000000000000000000000000000000000000000000000008152600401610e3b9061145c565b60405180910390fd5b600115158215151415610e6557346000819055506000549350505050610e6a565b600080fd5b90565b60098181548110610e7d57600080fd5b90600052602060002090600402016000915090508060000154908060010154908060020154908060030154905084565b600a6020528060005260406000206000915090505481565b600047905090565b6000806000905060005b600860003373ffffffffffffffffffffffffffffffffffffffff1673ffffffffffffffffffffffffffffffffffffffff168152602001908152602001600020805490508110156110af57600860003373ffffffffffffffffffffffffffffffffffffffff1673ffffffffffffffffffffffffffffffffffffffff1681526020019081526020016000208181548110610f98577f4e487b7100000000000000000000000000000000000000000000000000000000600052603260045260246000fd5b90600052602060002090600402016000015460098581548110610fe4577f4e487b7100000000000000000000000000000000000000000000000000000000600052603260045260246000fd5b906000526020600020906004020160000154111561109757600860003373ffffffffffffffffffffffffffffffffffffffff1673ffffffffffffffffffffffffffffffffffffffff1681526020019081526020016000208181548110611073577f4e487b7100000000000000000000000000000000000000000000000000000000600052603260045260246000fd5b906000526020600020906004020160020154826110909190611538565b915061109c565b6110af565b80806110a7906116c5565b915050610ed7565b508060038190555080915050919050565b6000808273ffffffffffffffffffffffffffffffffffffffff16346040516110e79061142c565b60006040518083038185875af1925050503d8060008114611124576040519150601f19603f3d011682016040523d82523d6000602084013e611129565b606091505b50915091508161116e576040517f08c379a00000000000000000000000000000000000000000000000000000000081526004016111659061145c565b60405180910390fd5b505050565b600460009054906101000a900473ffffffffffffffffffffffffffffffffffffffff1681565b60065481565b60075481565b60005481565b60015481565b60056020528060005260406000206000915090505481565b600860205281600052604060002081815481106111e557600080fd5b9060005260206000209060040201600091509150508060000154908060010154908060020154908060030154905084565b6040518060800160405280600081526020016000815260200160008152602001600081525090565b60008135905061124d8161176c565b92915050565b60008135905061126281611783565b92915050565b6000813590506112778161179a565b92915050565b60006020828403121561128f57600080fd5b600061129d8482850161123e565b91505092915050565b6000602082840312156112b857600080fd5b60006112c684828501611253565b91505092915050565b600080604083850312156112e257600080fd5b60006112f08582860161123e565b925050602061130185828601611268565b9150509250929050565b60006020828403121561131d57600080fd5b600061132b84828501611268565b91505092915050565b61133d8161164d565b82525050565b6000611350601483611527565b91507f4661696c656420746f2073656e642045746865720000000000000000000000006000830152602082019050919050565b6000611390601883611527565b91507f4661696c656420746f20776974686472617720457468657200000000000000006000830152602082019050919050565b60006113d0600983611527565b91507f4e6f74206f776e657200000000000000000000000000000000000000000000006000830152602082019050919050565b600061141060008361151c565b9150600082019050919050565b61142681611691565b82525050565b600061143782611403565b9150819050919050565b60006020820190506114566000830184611334565b92915050565b6000602082019050818103600083015261147581611343565b9050919050565b6000602082019050818103600083015261149581611383565b9050919050565b600060208201905081810360008301526114b5816113c3565b9050919050565b60006020820190506114d1600083018461141d565b92915050565b60006080820190506114ec600083018761141d565b6114f9602083018661141d565b611506604083018561141d565b611513606083018461141d565b95945050505050565b600081905092915050565b600082825260208201905092915050565b600061154382611691565b915061154e83611691565b9250827fffffffffffffffffffffffffffffffffffffffffffffffffffffffffffffffff038211156115835761158261170e565b5b828201905092915050565b600061159982611691565b91506115a483611691565b9250826115b4576115b361173d565b5b828204905092915050565b60006115ca82611691565b91506115d583611691565b9250817fffffffffffffffffffffffffffffffffffffffffffffffffffffffffffffffff048311821515161561160e5761160d61170e565b5b828202905092915050565b600061162482611691565b915061162f83611691565b9250828210156116425761164161170e565b5b828203905092915050565b600061165882611671565b9050919050565b600061166a82611671565b9050919050565b600073ffffffffffffffffffffffffffffffffffffffff82169050919050565b6000819050919050565b60006116a682611691565b915060008214156116ba576116b961170e565b5b600182039050919050565b60006116d082611691565b91507fffffffffffffffffffffffffffffffffffffffffffffffffffffffffffffffff8214156117035761170261170e565b5b600182019050919050565b7f4e487b7100000000000000000000000000000000000000000000000000000000600052601160045260246000fd5b7f4e487b7100000000000000000000000000000000000000000000000000000000600052601260045260246000fd5b6117758161164d565b811461178057600080fd5b50565b61178c8161165f565b811461179757600080fd5b50565b6117a381611691565b81146117ae57600080fd5b5056fea2646970667358221220bd9842d7ef21e58b4769d382142f8a439f6a1724b2af6a3829f21a129cb1092964736f6c63430008000033",
  "immutableReferences": {},
  "source": "// SPDX-License-Identifier: MIT\n\npragma solidity ^0.8.0;\n\ncontract ETHPool_  {\n\n    // Function to receive Ether. msg.data must be empty\n    receive() external payable {}\n    uint public _test;\n    uint public _rewards;\n    uint public userRewards;\n    uint public _totalUserDepositsInThisReward;\n//    uint public depositsLength;\n    //------\n    address public owner;\n\n    mapping (address => uint) public BalanceOf;\n    uint public totalUsersBalance;\n\n    uint256 public totalRewardsBalance;\n\n    struct depositRegistryStruct{\n         uint depositTime;\n         uint depositId;\n         uint amount;\n         uint totalBalanceAtThisTime;\n//         uint balanceAtThisTime;\n\n\n     }\n    mapping (address => depositRegistryStruct[]) public depositsUserRegistry;\n    depositRegistryStruct[] public rewardsDepositsRegistry;\n    mapping (address => uint) public lastClaim;\n\n\n    // mapping (address => uint256) public lastClaim;\n\n    constructor() {\n        // Set the transaction sender as the owner of the contract.\n        owner = msg.sender;\n //       lastClaim[msg.sender] = 0;\n    }\n\n    function userDeposit() public payable returns (uint){\n        totalUsersBalance += msg.value; \n        BalanceOf[msg.sender] += msg.value;\n        depositRegistryStruct memory userDeposit;\n\n         userDeposit.amount = msg.value;\n         userDeposit.depositTime = block.timestamp;\n         userDeposit.depositId = depositsUserRegistry[msg.sender].length;\n         userDeposit.totalBalanceAtThisTime = totalUsersBalance;\n         depositsUserRegistry[msg.sender].push(userDeposit);\n\n        (bool sent, bytes memory data) = address(this).call{value: msg.value}(\"\");\n        require(sent, \"Failed to send Ether\");\n\n        if(sent == true) { \n\n            _test = msg.value;\n            return (_test);\n        }\n        else {\n            revert();\n        }\n    \n    }\n\n    // function userDeposit(address _address ,uint _depositId) public returns (depositRegistryStruct memory) {\n    //     return depositsUserRegistry[_address][_depositId];\n    // }\n\n    function rewardsDeposit() public payable onlyOwner returns (uint)  {\n        totalRewardsBalance += msg.value; \n        depositRegistryStruct memory rewardDeposit;\n\n         rewardDeposit.amount = msg.value;\n         rewardDeposit.depositTime = block.timestamp;\n         rewardDeposit.depositId = rewardsDepositsRegistry.length;\n         rewardDeposit.totalBalanceAtThisTime = totalUsersBalance;\n         rewardsDepositsRegistry.push(rewardDeposit);\n\n        (bool sent, bytes memory data) = address(this).call{value: msg.value}(\"\");\n        require(sent, \"Failed to send Ether\");\n\n\n        if(sent == true) { \n\n            _test = msg.value;\n            return (_test);\n        }\n        else {\n            revert();\n        }\n        \n    }\n\n    // function rewardDeposit(uint _depositId) public returns (depositRegistryStruct memory) {\n    //     return rewardsDepositsRegistry[_depositId];\n    // }\n\n    //Withdraw Ether from the contract\n    function withdrawDeposit(uint amount) public returns (uint){\n        totalUsersBalance -= amount; \n        BalanceOf[msg.sender] -= amount;\n        \n         (bool succeed, bytes memory data) = msg.sender.call{value: amount}(\"\");\n         require(succeed, \"Failed to withdraw Ether\");\n\n  \n        if(succeed == true) { \n\n            _test = amount;\n            return (_test);\n        }\n        else {\n            revert();\n        }\n\n\n}\n\n\n function calculateRewards() public returns (uint)  {\n    uint rewards; \n    uint totalUserDeposits; \n    uint proportionRewards;\n\n        for (uint i = rewardsDepositsRegistry.length; i > 0 ; i--) {  \n            if (lastClaim[msg.sender] < rewardsDepositsRegistry[i - 1].depositTime) {\n                totalUserDeposits = calculateTotalUserDepositsInReward(i - 1);\n                proportionRewards += totalUserDeposits * 100 /  rewardsDepositsRegistry[i-1].totalBalanceAtThisTime * rewardsDepositsRegistry[i-1].amount;\n            }\n            else {\n                _rewards = 0;\n                break;\n            }      \n//               _rewards = i - 1;\n    }\n\n//            rewards = proportionRewards;\n            _rewards = proportionRewards;\n            lastClaim[msg.sender]=block.timestamp;\n            return _rewards;\n        }\n\nfunction calculateTotalUserDepositsInReward(uint i) public returns (uint){\n    uint totalUserDepositsInThisReward = 0; \n            for (uint j = 0 ; j < depositsUserRegistry[msg.sender].length; j++){\n                    if (rewardsDepositsRegistry[i].depositTime > depositsUserRegistry[msg.sender][j].depositTime){\n                        totalUserDepositsInThisReward +=  depositsUserRegistry[msg.sender][j].amount;\n                     } \n                     else {\n                         break;\n                        }\n                }\n        _totalUserDepositsInThisReward = totalUserDepositsInThisReward;\n        return totalUserDepositsInThisReward;\n    }\n\n\nfunction claimRewards() public returns (uint) {\n    uint rewards;\n    rewards = calculateRewards() / 100;\n    lastClaim[msg.sender] = block.timestamp;\n\n    (bool succeed, bytes memory data) = msg.sender.call{value: rewards}(\"\");\n    require(succeed, \"Failed to withdraw Ether\");\n\n    if(succeed == true) { \n\n            _test = rewards;\n            return _test;\n        }\n        else {\n            revert();\n        }\n}\n \n    //Send ether from the account connected with this function\n    function sendViaCall(address payable _to) public payable {\n    // Call returns a boolean value indicating success or failure.\n    // This is the current recommended method to use.\n        (bool sent, bytes memory data) = _to.call{value: msg.value}(\"\");\n        require(sent, \"Failed to send Ether\");\n    }\n\n    function getContractBalance() public view returns (uint) {\n        return address(this).balance;\n    }\n\n    function getLegthDepositsArray() public view returns (uint){\n        return  depositsUserRegistry[msg.sender].length;\n    }\n\n    \n\n    modifier onlyOwner() {\n        require(msg.sender == owner, \"Not owner\");\n        // Underscore is a special character only used inside\n        // a function modifier and it tells Solidity to\n        // execute the rest of the code.\n        _;\n    }\n\n    function testSomething() public returns (uint) {\n//        _test = userDeposit{value: 100}();\n\n//        address.function{ value: amount }(arg1, arg2, arg3)\n\n        return _test;\n    }\n \n}",
  "sourcePath": "C:\\Codeando\\ExactlyChallenge\\v1\\contracts\\ETHPool copy.sol",
  "compiler": {
    "name": "solc",
    "version": "0.8.0+commit.c7dfd78e.Emscripten.clang"
  },
  "schemaVersion": "3.4.7",
  "updatedAt": "2022-04-19T20:47:35.405Z",
  "devdoc": {
    "kind": "dev",
    "methods": {},
    "version": 1
  },
  "userdoc": {
    "kind": "user",
    "methods": {},
    "version": 1
  }
}